:1000000045C0000060C000005EC000005CC0000091
:100010005AC0000058C0000056C0000054C0000084
:1000200052C0000050C000004EC000004CC0000094
:100030004AC0000048C0000046C0000044C00000A4
:1000400042C0000040C000003EC000003CC00000B4
:100050003AC0000038C0000036C0000034C00000C4
:1000600032C0000030C000002EC000002CC00000D4
:100070002AC0000028C0000026C0000024C00000E4
:1000800022C0000020C000001EC0000011241FBEBE
:10009000CFEFD0E1DEBFCDBF11E0A0E0B1E0E2EAFA
:1000A000F3E000E00BBF02C007900D92AA30B10749
:1000B000D9F721E0AAE0B1E001C01D92A033B20758
:1000C000E1F7AFD06CC19CCF8FEF8ABB80E287BBDA
:1000D00087E081BB089582E88FBD8BE18EBD87E804
:1000E00093E197BD86BD88E592E09BBD8ABD0895EA
:1000F00081B3806481BB82B38F7B82BB2FEF89EF9A
:1001000090E0215080409040E1F700C0000082B3B1
:10011000806482BB089581B38F7B81BB8699FECFBB
:10012000869BFECF8699FECF089520E030E080E0E8
:1001300011C0869BFECF90EA9A95F1F7869B05C089
:1001400090E0880F991F816001C0880F8699FECFCB
:100150002F5F3F4F2830310564F30895E82FF0E01A
:10016000E05FFE4F1082089592B39E7F92BB92B3E0
:100170009D7F92BB95E39A95F1F7000092B394604E
:1001800092BB8BBB85E38A95F1F7000082B38B7F2E
:1001900082BB95E39A95F1F70000089588E3E4DFC8
:1001A0008FE39CE90197F1F700C000008CE0DCDFF1
:1001B0008FE39CE90197F1F700C0000086E0D4DFEF
:1001C0008FE39CE90197F1F700C0000081E0CCDFEC
:1001D0008FE39CE90197F1F700C00000089590E4D7
:1001E000899F600D1124862F8068BECF089592B339
:1001F000916092BB92B39D7F92BB95E39A95F1F784
:10020000000092B3946092BB8BBB85E38A95F1F7B3
:10021000000082B38B7F82BB95E39A95F1F70000D3
:10022000089552DF58DFBADF63DF75DF7EDF80932A
:100230000B017BDF80930F0178DF80930D0175DF69
:1002400080930A0172DF80930E0120910B0190913F
:100250000F01920F20910D01920F20910A01920F30
:1002600090930C01891391C004C08C2F77DF2196E5
:1002700002C0C0E0D0E0C032D105BCF360E080E055
:10028000AEDF89E0E0E0F1E0A0E1B1E001900D92A5
:100290008A95E1F7E0E1F1E001900020E9F731977C
:1002A000CF018051914070910B0159E2759F512D02
:1002B00011242DEC52955F70729F412D11244695AB
:1002C00046954695429F312D1124369536953695A3
:1002D000330F632F660F660F360F642F631B362FA5
:1002E000440F642F660F660F460F672F641BFC01D7
:1002F000FF27E05FFE4F90E3950F9083E1E0E80F6A
:10030000F0E0E05FFE4F305D3083E2E0E80FF0E0C8
:10031000E05FFE4F605D6083E3E0E80FF0E0E05FE8
:10032000FE4F9EE29083E4E0E80FF0E0E05FFE4FD6
:1003300090910F01929F212D1124269526952695A7
:10034000220F322F330F330F230F921B905D9083B8
:1003500015E0180FC0E0D0E006C0FE01E05FFE4FE0
:10036000808145DF2196812F90E0C817D907ACF333
:1003700080910B01883228F087E791E09BBD8ABD10
:1003800004C088E592E09BBD8ABD8FEF99E628E125
:10039000815090402040E1F700C0000045CFF89424
:0203A000FFCF8D
:0A03A20048756D6964203A200000E0
:00000001FF
